:100000000C9434000C943E000C943E000C943E0082
:100010000C943E000C943E000C943E000C943E0068
:100020000C943E000C943E000C943E000C943E0058
:100030000C943E000C943E000C943E000C943E0048
:100040000C943E000C943E000C943E000C943E0038
:100050000C943E000C943E000C943E000C943E0028
:100060000C943E000C943E0011241FBECFEFD8E04C
:10007000DEBFCDBF0E9440000C9446010C940000EE
:100080001F930E9455000E945B0011E089B190E02F
:1000900083709070892B39F415B980E00E9462005A
:1000A0000E948100F3CF15B8F1CF1AB881E084B96E
:1000B00083E08BB9089580E480937C0087E8809387
:1000C0007A00089590917C00987F90937C009091A5
:1000D0007C008770892B80937C0080917A008064FB
:1000E00080937A0080917A0084FFFCCF80917A001F
:1000F000806180937A002091780030917900C90165
:100100000895DF93CF93CDB7DEB72A970FB6F89453
:10011000DEBF0FBECDBF9C018091800083688093BD
:100120008000809181008B6080938100219A223D24
:10013000310550F48DEC90E0909389008093880015
:1001400082E3898380E31FC0C901825D90408C52A5
:10015000914050F48AE991E090938900809388005F
:1001600082E3898385E30FC0C9018E5F9140883C9B
:100170009105A0F48DEC92E0909389008093880023
:1001800082E3898389E38A8380EB8B8383E48C8396
:1001900080E28D831E8282E390E017C0265C3240AD
:1001A0002B533140A8F58DEC93E090938900809318
:1001B000880083E389838A8380EB8B8383E48C8349
:1001C00080E28D831E8283E390E00E942B018A816E
:1001D000992787FD90950E942B018B81992787FD98
:1001E00090950E942B018C81992787FD90950E9404
:1001F0002B018D81992787FD90950E942B0180E02E
:1002000090E00E942B0188E893E10197F1F704C088
:1002100010928900109288002A960FB6F894DEBFDB
:100220000FBECDBFCF91DF9108958093C40090930E
:10023000C500E2ECF0E0808186608083E1ECF0E0D4
:100240008081886D808308958091C00087FFFCCFF6
:100250008091C6000895982F8091C00085FFFCCF43
:100260009093C600089520E030E040E050E0AAEF0F
:10027000B0E0FD013197F1F72F5F3F4F4F4F5F4FD8
:100280006217730784079507A0F70895F894FFCFC6
:00000001FF
